{
  "contractName": "CarbonCredit",
  "abi": [
    {
      "inputs": [
        {
          "internalType": "address",
          "name": "_rolesContractAddress",
          "type": "address"
        }
      ],
      "stateMutability": "nonpayable",
      "type": "constructor"
    },
    {
      "anonymous": false,
      "inputs": [
        {
          "indexed": true,
          "internalType": "address",
          "name": "owner",
          "type": "address"
        },
        {
          "indexed": true,
          "internalType": "address",
          "name": "spender",
          "type": "address"
        },
        {
          "indexed": false,
          "internalType": "uint256",
          "name": "value",
          "type": "uint256"
        }
      ],
      "name": "Approval",
      "type": "event"
    },
    {
      "anonymous": false,
      "inputs": [
        {
          "indexed": false,
          "internalType": "uint256",
          "name": "requestId",
          "type": "uint256"
        },
        {
          "indexed": true,
          "internalType": "address",
          "name": "auditor",
          "type": "address"
        }
      ],
      "name": "CarbonCreditApproved",
      "type": "event"
    },
    {
      "anonymous": false,
      "inputs": [
        {
          "indexed": true,
          "internalType": "address",
          "name": "supplier",
          "type": "address"
        },
        {
          "indexed": false,
          "internalType": "uint256",
          "name": "requestId",
          "type": "uint256"
        },
        {
          "indexed": false,
          "internalType": "uint256",
          "name": "amount",
          "type": "uint256"
        },
        {
          "indexed": false,
          "internalType": "string",
          "name": "project",
          "type": "string"
        }
      ],
      "name": "CarbonCreditRequested",
      "type": "event"
    },
    {
      "anonymous": false,
      "inputs": [
        {
          "indexed": true,
          "internalType": "address",
          "name": "from",
          "type": "address"
        },
        {
          "indexed": true,
          "internalType": "address",
          "name": "to",
          "type": "address"
        },
        {
          "indexed": false,
          "internalType": "uint256",
          "name": "value",
          "type": "uint256"
        }
      ],
      "name": "Transfer",
      "type": "event"
    },
    {
      "inputs": [
        {
          "internalType": "address",
          "name": "owner",
          "type": "address"
        },
        {
          "internalType": "address",
          "name": "spender",
          "type": "address"
        }
      ],
      "name": "allowance",
      "outputs": [
        {
          "internalType": "uint256",
          "name": "",
          "type": "uint256"
        }
      ],
      "stateMutability": "view",
      "type": "function",
      "constant": true
    },
    {
      "inputs": [
        {
          "internalType": "address",
          "name": "spender",
          "type": "address"
        },
        {
          "internalType": "uint256",
          "name": "amount",
          "type": "uint256"
        }
      ],
      "name": "approve",
      "outputs": [
        {
          "internalType": "bool",
          "name": "",
          "type": "bool"
        }
      ],
      "stateMutability": "nonpayable",
      "type": "function"
    },
    {
      "inputs": [
        {
          "internalType": "address",
          "name": "account",
          "type": "address"
        }
      ],
      "name": "balanceOf",
      "outputs": [
        {
          "internalType": "uint256",
          "name": "",
          "type": "uint256"
        }
      ],
      "stateMutability": "view",
      "type": "function",
      "constant": true
    },
    {
      "inputs": [],
      "name": "decimals",
      "outputs": [
        {
          "internalType": "uint8",
          "name": "",
          "type": "uint8"
        }
      ],
      "stateMutability": "view",
      "type": "function",
      "constant": true
    },
    {
      "inputs": [
        {
          "internalType": "uint256",
          "name": "",
          "type": "uint256"
        }
      ],
      "name": "issuanceRequests",
      "outputs": [
        {
          "internalType": "address",
          "name": "supplier",
          "type": "address"
        },
        {
          "internalType": "uint256",
          "name": "amount",
          "type": "uint256"
        },
        {
          "internalType": "string",
          "name": "project",
          "type": "string"
        },
        {
          "internalType": "bool",
          "name": "approved",
          "type": "bool"
        }
      ],
      "stateMutability": "view",
      "type": "function",
      "constant": true
    },
    {
      "inputs": [],
      "name": "name",
      "outputs": [
        {
          "internalType": "string",
          "name": "",
          "type": "string"
        }
      ],
      "stateMutability": "view",
      "type": "function",
      "constant": true
    },
    {
      "inputs": [],
      "name": "nextRequestId",
      "outputs": [
        {
          "internalType": "uint256",
          "name": "",
          "type": "uint256"
        }
      ],
      "stateMutability": "view",
      "type": "function",
      "constant": true
    },
    {
      "inputs": [],
      "name": "symbol",
      "outputs": [
        {
          "internalType": "string",
          "name": "",
          "type": "string"
        }
      ],
      "stateMutability": "view",
      "type": "function",
      "constant": true
    },
    {
      "inputs": [],
      "name": "totalSupply",
      "outputs": [
        {
          "internalType": "uint256",
          "name": "",
          "type": "uint256"
        }
      ],
      "stateMutability": "view",
      "type": "function",
      "constant": true
    },
    {
      "inputs": [
        {
          "internalType": "address",
          "name": "sender",
          "type": "address"
        },
        {
          "internalType": "address",
          "name": "recipient",
          "type": "address"
        },
        {
          "internalType": "uint256",
          "name": "amount",
          "type": "uint256"
        }
      ],
      "name": "transferFrom",
      "outputs": [
        {
          "internalType": "bool",
          "name": "",
          "type": "bool"
        }
      ],
      "stateMutability": "nonpayable",
      "type": "function"
    },
    {
      "inputs": [
        {
          "internalType": "uint256",
          "name": "amount",
          "type": "uint256"
        },
        {
          "internalType": "string",
          "name": "project",
          "type": "string"
        }
      ],
      "name": "requestIssuance",
      "outputs": [],
      "stateMutability": "nonpayable",
      "type": "function"
    },
    {
      "inputs": [
        {
          "internalType": "uint256",
          "name": "requestId",
          "type": "uint256"
        }
      ],
      "name": "approveIssuance",
      "outputs": [],
      "stateMutability": "nonpayable",
      "type": "function"
    },
    {
      "inputs": [
        {
          "internalType": "address",
          "name": "recipient",
          "type": "address"
        },
        {
          "internalType": "uint256",
          "name": "amount",
          "type": "uint256"
        }
      ],
      "name": "transfer",
      "outputs": [
        {
          "internalType": "bool",
          "name": "",
          "type": "bool"
        }
      ],
      "stateMutability": "nonpayable",
      "type": "function"
    }
  ],
  "bytecode": "0x608060405260006007553480156200001657600080fd5b50604051620022bf380380620022bf83398181016040528101906200003c9190620001eb565b6040518060400160405280601381526020017f436172626f6e2043726564697420546f6b656e000000000000000000000000008152506040518060400160405280600381526020017f43435400000000000000000000000000000000000000000000000000000000008152508160039080519060200190620000c092919062000124565b508060049080519060200190620000d992919062000124565b50505080600560006101000a81548173ffffffffffffffffffffffffffffffffffffffff021916908373ffffffffffffffffffffffffffffffffffffffff16021790555050620002ca565b82805462000132906200024b565b90600052602060002090601f016020900481019282620001565760008555620001a2565b82601f106200017157805160ff1916838001178555620001a2565b82800160010185558215620001a2579182015b82811115620001a157825182559160200191906001019062000184565b5b509050620001b19190620001b5565b5090565b5b80821115620001d0576000816000905550600101620001b6565b5090565b600081519050620001e581620002b0565b92915050565b600060208284031215620001fe57600080fd5b60006200020e84828501620001d4565b91505092915050565b600062000224826200022b565b9050919050565b600073ffffffffffffffffffffffffffffffffffffffff82169050919050565b600060028204905060018216806200026457607f821691505b602082108114156200027b576200027a62000281565b5b50919050565b7f4e487b7100000000000000000000000000000000000000000000000000000000600052602260045260246000fd5b620002bb8162000217565b8114620002c757600080fd5b50565b611fe580620002da6000396000f3fe608060405234801561001057600080fd5b50600436106100cf5760003560e01c8063313ce5671161008c57806395d89b411161006657806395d89b411461022b578063a9059cbb14610249578063dd62ed3e14610279578063fd388185146102a9576100cf565b8063313ce567146101bf5780636a84a985146101dd57806370a08231146101fb576100cf565b806306fdde03146100d4578063095ea7b3146100f257806318160ddd1461012257806318dfbef31461014057806323b872dd1461015c578063241670a21461018c575b600080fd5b6100dc6102c5565b6040516100e99190611acd565b60405180910390f35b61010c60048036038101906101079190611578565b610357565b6040516101199190611ab2565b60405180910390f35b61012a610375565b6040516101379190611c2f565b60405180910390f35b61015a6004803603810190610155919061161e565b61037f565b005b61017660048036038101906101719190611529565b61063b565b6040516101839190611ab2565b60405180910390f35b6101a660048036038101906101a191906115f5565b61073c565b6040516101b69493929190611a66565b60405180910390f35b6101c7610821565b6040516101d49190611c88565b60405180910390f35b6101e561082a565b6040516101f29190611c2f565b60405180910390f35b610215600480360381019061021091906114c4565b610830565b6040516102229190611c2f565b60405180910390f35b610233610878565b6040516102409190611acd565b60405180910390f35b610263600480360381019061025e9190611578565b61090a565b6040516102709190611ab2565b60405180910390f35b610293600480360381019061028e91906114ed565b61091e565b6040516102a09190611c2f565b60405180910390f35b6102c360048036038101906102be91906115f5565b6109a5565b005b6060600380546102d490611e41565b80601f016020809104026020016040519081016040528092919081815260200182805461030090611e41565b801561034d5780601f106103225761010080835404028352916020019161034d565b820191906000526020600020905b81548152906001019060200180831161033057829003601f168201915b5050505050905090565b600061036b610364610caf565b8484610cb7565b6001905092915050565b6000600254905090565b6000600560009054906101000a900473ffffffffffffffffffffffffffffffffffffffff1673ffffffffffffffffffffffffffffffffffffffff16636f77926b336040518263ffffffff1660e01b81526004016103dc9190611a4b565b60006040518083038186803b1580156103f457600080fd5b505afa158015610408573d6000803e3d6000fd5b505050506040513d6000823e3d601f19601f8201168201806040525081019061043191906115b4565b90506001600481111561046d577f4e487b7100000000000000000000000000000000000000000000000000000000600052602160045260246000fd5b816040015160048111156104aa577f4e487b7100000000000000000000000000000000000000000000000000000000600052602160045260246000fd5b146104ea576040517f08c379a00000000000000000000000000000000000000000000000000000000081526004016104e190611bef565b60405180910390fd5b60405180608001604052803373ffffffffffffffffffffffffffffffffffffffff1681526020018481526020018381526020016000151581525060066000600754815260200190815260200160002060008201518160000160006101000a81548173ffffffffffffffffffffffffffffffffffffffff021916908373ffffffffffffffffffffffffffffffffffffffff1602179055506020820151816001015560408201518160020190805190602001906105a692919061125c565b5060608201518160030160006101000a81548160ff0219169083151502179055509050503373ffffffffffffffffffffffffffffffffffffffff167fe0bdf6c12d2d5bc94b2bdebf6b28ed4fe818d97127953369d7a45897583d76fc600754858560405161061693929190611c4a565b60405180910390a26007600081548092919061063190611e73565b9190505550505050565b6000610648848484610e82565b6000600160008673ffffffffffffffffffffffffffffffffffffffff1673ffffffffffffffffffffffffffffffffffffffff1681526020019081526020016000206000610693610caf565b73ffffffffffffffffffffffffffffffffffffffff1673ffffffffffffffffffffffffffffffffffffffff16815260200190815260200160002054905082811015610713576040517f08c379a000000000000000000000000000000000000000000000000000000000815260040161070a90611b8f565b60405180910390fd5b6107308561071f610caf565b858461072b9190611d76565b610cb7565b60019150509392505050565b60066020528060005260406000206000915090508060000160009054906101000a900473ffffffffffffffffffffffffffffffffffffffff169080600101549080600201805461078b90611e41565b80601f01602080910402602001604051908101604052809291908181526020018280546107b790611e41565b80156108045780601f106107d957610100808354040283529160200191610804565b820191906000526020600020905b8154815290600101906020018083116107e757829003601f168201915b5050505050908060030160009054906101000a900460ff16905084565b60006012905090565b60075481565b60008060008373ffffffffffffffffffffffffffffffffffffffff1673ffffffffffffffffffffffffffffffffffffffff168152602001908152602001600020549050919050565b60606004805461088790611e41565b80601f01602080910402602001604051908101604052809291908181526020018280546108b390611e41565b80156109005780601f106108d557610100808354040283529160200191610900565b820191906000526020600020905b8154815290600101906020018083116108e357829003601f168201915b5050505050905090565b600061091683836110f6565b905092915050565b6000600160008473ffffffffffffffffffffffffffffffffffffffff1673ffffffffffffffffffffffffffffffffffffffff16815260200190815260200160002060008373ffffffffffffffffffffffffffffffffffffffff1673ffffffffffffffffffffffffffffffffffffffff16815260200190815260200160002054905092915050565b6000600560009054906101000a900473ffffffffffffffffffffffffffffffffffffffff1673ffffffffffffffffffffffffffffffffffffffff16636f77926b336040518263ffffffff1660e01b8152600401610a029190611a4b565b60006040518083038186803b158015610a1a57600080fd5b505afa158015610a2e573d6000803e3d6000fd5b505050506040513d6000823e3d601f19601f82011682018060405250810190610a5791906115b4565b905060026004811115610a93577f4e487b7100000000000000000000000000000000000000000000000000000000600052602160045260246000fd5b81604001516004811115610ad0577f4e487b7100000000000000000000000000000000000000000000000000000000600052602160045260246000fd5b14610b10576040517f08c379a0000000000000000000000000000000000000000000000000000000008152600401610b0790611bef565b60405180910390fd5b60006006600084815260200190815260200160002090508060030160009054906101000a900460ff1615610b79576040517f08c379a0000000000000000000000000000000000000000000000000000000008152600401610b7090611b4f565b60405180910390fd5b600073ffffffffffffffffffffffffffffffffffffffff168160000160009054906101000a900473ffffffffffffffffffffffffffffffffffffffff1673ffffffffffffffffffffffffffffffffffffffff161415610c0d576040517f08c379a0000000000000000000000000000000000000000000000000000000008152600401610c0490611b6f565b60405180910390fd5b60018160030160006101000a81548160ff021916908315150217905550610c5c8160000160009054906101000a900473ffffffffffffffffffffffffffffffffffffffff168260010154611114565b3373ffffffffffffffffffffffffffffffffffffffff167ffa31d066a78cf3fea2f2eee1101e3e8f2944b78ba4493da8916651e95d421e4e84604051610ca29190611c2f565b60405180910390a2505050565b600033905090565b600073ffffffffffffffffffffffffffffffffffffffff168373ffffffffffffffffffffffffffffffffffffffff161415610d27576040517f08c379a0000000000000000000000000000000000000000000000000000000008152600401610d1e90611bcf565b60405180910390fd5b600073ffffffffffffffffffffffffffffffffffffffff168273ffffffffffffffffffffffffffffffffffffffff161415610d97576040517f08c379a0000000000000000000000000000000000000000000000000000000008152600401610d8e90611b0f565b60405180910390fd5b80600160008573ffffffffffffffffffffffffffffffffffffffff1673ffffffffffffffffffffffffffffffffffffffff16815260200190815260200160002060008473ffffffffffffffffffffffffffffffffffffffff1673ffffffffffffffffffffffffffffffffffffffff168152602001908152602001600020819055508173ffffffffffffffffffffffffffffffffffffffff168373ffffffffffffffffffffffffffffffffffffffff167f8c5be1e5ebec7d5bd14f71427d1e84f3dd0314c0f7b2291e5b200ac8c7c3b92583604051610e759190611c2f565b60405180910390a3505050565b600073ffffffffffffffffffffffffffffffffffffffff168373ffffffffffffffffffffffffffffffffffffffff161415610ef2576040517f08c379a0000000000000000000000000000000000000000000000000000000008152600401610ee990611baf565b60405180910390fd5b600073ffffffffffffffffffffffffffffffffffffffff168273ffffffffffffffffffffffffffffffffffffffff161415610f62576040517f08c379a0000000000000000000000000000000000000000000000000000000008152600401610f5990611aef565b60405180910390fd5b60008060008573ffffffffffffffffffffffffffffffffffffffff1673ffffffffffffffffffffffffffffffffffffffff16815260200190815260200160002054905081811015610fe8576040517f08c379a0000000000000000000000000000000000000000000000000000000008152600401610fdf90611b2f565b60405180910390fd5b8181610ff49190611d76565b6000808673ffffffffffffffffffffffffffffffffffffffff1673ffffffffffffffffffffffffffffffffffffffff16815260200190815260200160002081905550816000808573ffffffffffffffffffffffffffffffffffffffff1673ffffffffffffffffffffffffffffffffffffffff16815260200190815260200160002060008282546110849190611d20565b925050819055508273ffffffffffffffffffffffffffffffffffffffff168473ffffffffffffffffffffffffffffffffffffffff167fddf252ad1be2c89b69c2b068fc378daa952ba7f163c4a11628f55a4df523b3ef846040516110e89190611c2f565b60405180910390a350505050565b600061110a611103610caf565b8484610e82565b6001905092915050565b600073ffffffffffffffffffffffffffffffffffffffff168273ffffffffffffffffffffffffffffffffffffffff161415611184576040517f08c379a000000000000000000000000000000000000000000000000000000000815260040161117b90611c0f565b60405180910390fd5b80600260008282546111969190611d20565b92505081905550806000808473ffffffffffffffffffffffffffffffffffffffff1673ffffffffffffffffffffffffffffffffffffffff16815260200190815260200160002060008282546111eb9190611d20565b925050819055508173ffffffffffffffffffffffffffffffffffffffff16600073ffffffffffffffffffffffffffffffffffffffff167fddf252ad1be2c89b69c2b068fc378daa952ba7f163c4a11628f55a4df523b3ef836040516112509190611c2f565b60405180910390a35050565b82805461126890611e41565b90600052602060002090601f01602090048101928261128a57600085556112d1565b82601f106112a357805160ff19168380011785556112d1565b828001600101855582156112d1579182015b828111156112d05782518255916020019190600101906112b5565b5b5090506112de91906112e2565b5090565b5b808211156112fb5760008160009055506001016112e3565b5090565b600061131261130d84611cd4565b611ca3565b90508281526020810184848401111561132a57600080fd5b611335848285611dff565b509392505050565b600061135061134b84611cd4565b611ca3565b90508281526020810184848401111561136857600080fd5b611373848285611e0e565b509392505050565b60008135905061138a81611f5a565b92915050565b60008151905061139f81611f5a565b92915050565b6000815190506113b481611f71565b92915050565b6000815190506113c981611f88565b92915050565b600082601f8301126113e057600080fd5b81356113f08482602086016112ff565b91505092915050565b600082601f83011261140a57600080fd5b815161141a84826020860161133d565b91505092915050565b60006080828403121561143557600080fd5b61143f6080611ca3565b9050600082015167ffffffffffffffff81111561145b57600080fd5b611467848285016113f9565b600083015250602061147b84828501611390565b602083015250604061148f848285016113ba565b60408301525060606114a3848285016113a5565b60608301525092915050565b6000813590506114be81611f98565b92915050565b6000602082840312156114d657600080fd5b60006114e48482850161137b565b91505092915050565b6000806040838503121561150057600080fd5b600061150e8582860161137b565b925050602061151f8582860161137b565b9150509250929050565b60008060006060848603121561153e57600080fd5b600061154c8682870161137b565b935050602061155d8682870161137b565b925050604061156e868287016114af565b9150509250925092565b6000806040838503121561158b57600080fd5b60006115998582860161137b565b92505060206115aa858286016114af565b9150509250929050565b6000602082840312156115c657600080fd5b600082015167ffffffffffffffff8111156115e057600080fd5b6115ec84828501611423565b91505092915050565b60006020828403121561160757600080fd5b6000611615848285016114af565b91505092915050565b6000806040838503121561163157600080fd5b600061163f858286016114af565b925050602083013567ffffffffffffffff81111561165c57600080fd5b611668858286016113cf565b9150509250929050565b61167b81611daa565b82525050565b61168a81611dbc565b82525050565b600061169b82611d04565b6116a58185611d0f565b93506116b5818560208601611e0e565b6116be81611f49565b840191505092915050565b60006116d6602383611d0f565b91507f45524332303a207472616e7366657220746f20746865207a65726f206164647260008301527f65737300000000000000000000000000000000000000000000000000000000006020830152604082019050919050565b600061173c602283611d0f565b91507f45524332303a20617070726f766520746f20746865207a65726f20616464726560008301527f73730000000000000000000000000000000000000000000000000000000000006020830152604082019050919050565b60006117a2602683611d0f565b91507f45524332303a207472616e7366657220616d6f756e742065786365656473206260008301527f616c616e636500000000000000000000000000000000000000000000000000006020830152604082019050919050565b6000611808601983611d0f565b91507f49737375616e636520616c726561647920617070726f766564000000000000006000830152602082019050919050565b6000611848601883611d0f565b91507f496e76616c69642069737375616e6365207265717565737400000000000000006000830152602082019050919050565b6000611888602883611d0f565b91507f45524332303a207472616e7366657220616d6f756e742065786365656473206160008301527f6c6c6f77616e63650000000000000000000000000000000000000000000000006020830152604082019050919050565b60006118ee602583611d0f565b91507f45524332303a207472616e736665722066726f6d20746865207a65726f20616460008301527f64726573730000000000000000000000000000000000000000000000000000006020830152604082019050919050565b6000611954602483611d0f565b91507f45524332303a20617070726f76652066726f6d20746865207a65726f2061646460008301527f72657373000000000000000000000000000000000000000000000000000000006020830152604082019050919050565b60006119ba601683611d0f565b91507f55736572206973206e6f74206120737570706c696572000000000000000000006000830152602082019050919050565b60006119fa601f83611d0f565b91507f45524332303a206d696e7420746f20746865207a65726f2061646472657373006000830152602082019050919050565b611a3681611de8565b82525050565b611a4581611df2565b82525050565b6000602082019050611a606000830184611672565b92915050565b6000608082019050611a7b6000830187611672565b611a886020830186611a2d565b8181036040830152611a9a8185611690565b9050611aa96060830184611681565b95945050505050565b6000602082019050611ac76000830184611681565b92915050565b60006020820190508181036000830152611ae78184611690565b905092915050565b60006020820190508181036000830152611b08816116c9565b9050919050565b60006020820190508181036000830152611b288161172f565b9050919050565b60006020820190508181036000830152611b4881611795565b9050919050565b60006020820190508181036000830152611b68816117fb565b9050919050565b60006020820190508181036000830152611b888161183b565b9050919050565b60006020820190508181036000830152611ba88161187b565b9050919050565b60006020820190508181036000830152611bc8816118e1565b9050919050565b60006020820190508181036000830152611be881611947565b9050919050565b60006020820190508181036000830152611c08816119ad565b9050919050565b60006020820190508181036000830152611c28816119ed565b9050919050565b6000602082019050611c446000830184611a2d565b92915050565b6000606082019050611c5f6000830186611a2d565b611c6c6020830185611a2d565b8181036040830152611c7e8184611690565b9050949350505050565b6000602082019050611c9d6000830184611a3c565b92915050565b6000604051905081810181811067ffffffffffffffff82111715611cca57611cc9611f1a565b5b8060405250919050565b600067ffffffffffffffff821115611cef57611cee611f1a565b5b601f19601f8301169050602081019050919050565b600081519050919050565b600082825260208201905092915050565b6000611d2b82611de8565b9150611d3683611de8565b9250827fffffffffffffffffffffffffffffffffffffffffffffffffffffffffffffffff03821115611d6b57611d6a611ebc565b5b828201905092915050565b6000611d8182611de8565b9150611d8c83611de8565b925082821015611d9f57611d9e611ebc565b5b828203905092915050565b6000611db582611dc8565b9050919050565b60008115159050919050565b600073ffffffffffffffffffffffffffffffffffffffff82169050919050565b6000819050919050565b600060ff82169050919050565b82818337600083830152505050565b60005b83811015611e2c578082015181840152602081019050611e11565b83811115611e3b576000848401525b50505050565b60006002820490506001821680611e5957607f821691505b60208210811415611e6d57611e6c611eeb565b5b50919050565b6000611e7e82611de8565b91507fffffffffffffffffffffffffffffffffffffffffffffffffffffffffffffffff821415611eb157611eb0611ebc565b5b600182019050919050565b7f4e487b7100000000000000000000000000000000000000000000000000000000600052601160045260246000fd5b7f4e487b7100000000000000000000000000000000000000000000000000000000600052602260045260246000fd5b7f4e487b7100000000000000000000000000000000000000000000000000000000600052604160045260246000fd5b6000601f19601f8301169050919050565b611f6381611daa565b8114611f6e57600080fd5b50565b611f7a81611dbc565b8114611f8557600080fd5b50565b60058110611f9557600080fd5b50565b611fa181611de8565b8114611fac57600080fd5b5056fea264697066735822122062647b6f25dcaef6caf15227d22ec5a5fb03b021261d8a60482d4ed15c62919964736f6c63430008000033",
  "immutableReferences": {},
  "source": "// SPDX-License-Identifier: MIT\r\npragma solidity ^0.8.0;\r\n\r\nimport \"./ERC20.sol\";\r\nimport \"./Roles.sol\";\r\n\r\ncontract CarbonCredit is ERC20 {\r\n    Roles private rolesContract;\r\n\r\n    // Struct representing a carbon credit issuance request\r\n    struct IssuanceRequest {\r\n        address supplier;\r\n        uint256 amount;\r\n        string project;\r\n        bool approved;\r\n    }\r\n\r\n    // Mapping to track all issuance requests by ID\r\n    mapping(uint256 => IssuanceRequest) public issuanceRequests;\r\n    uint256 public nextRequestId = 0;\r\n\r\n    // Events for requesting and approving carbon credits\r\n    event CarbonCreditRequested(\r\n        address indexed supplier,\r\n        uint256 requestId,\r\n        uint256 amount,\r\n        string project\r\n    );\r\n    event CarbonCreditApproved(uint256 requestId, address indexed auditor);\r\n\r\n    // Constructor to initialize the contract with the address of the Roles contract\r\n    constructor(\r\n        address _rolesContractAddress\r\n    ) ERC20(\"Carbon Credit Token\", \"CCT\") {\r\n        rolesContract = Roles(_rolesContractAddress);\r\n    }\r\n\r\n    // Modifier to ensure only registered suppliers can interact with the contract\r\n    modifier onlySupplier() {\r\n        Roles.User memory currentUser = rolesContract.getUser(msg.sender);\r\n        require(\r\n            currentUser.role == Roles.Role.Supplier,\r\n            \"User is not a supplier\"\r\n        );\r\n        _;\r\n    }\r\n\r\n    modifier onlyAuditor() {\r\n        Roles.User memory currentUser = rolesContract.getUser(msg.sender);\r\n        require(\r\n            currentUser.role == Roles.Role.Auditor,\r\n            \"User is not a supplier\"\r\n        );\r\n        _;\r\n    }\r\n\r\n    // Function to request issuance of carbon credits (only for suppliers)\r\n    function requestIssuance(\r\n        uint256 amount,\r\n        string memory project\r\n    ) public onlySupplier {\r\n        // Create a new issuance request\r\n        issuanceRequests[nextRequestId] = IssuanceRequest({\r\n            supplier: msg.sender,\r\n            amount: amount,\r\n            project: project,\r\n            approved: false\r\n        });\r\n\r\n        emit CarbonCreditRequested(msg.sender, nextRequestId, amount, project);\r\n        nextRequestId++;\r\n    }\r\n\r\n    // Function to approve the issuance of carbon credits (only for auditors)\r\n    function approveIssuance(uint256 requestId) public onlyAuditor {\r\n        IssuanceRequest storage request = issuanceRequests[requestId];\r\n        require(!request.approved, \"Issuance already approved\");\r\n        require(request.supplier != address(0), \"Invalid issuance request\");\r\n        request.approved = true;\r\n        _mint(request.supplier, request.amount);\r\n\r\n        emit CarbonCreditApproved(requestId, msg.sender);\r\n    }\r\n\r\n    // Standard ERC20 transfer function\r\n    function transfer(\r\n        address recipient,\r\n        uint256 amount\r\n    ) public virtual override returns (bool) {\r\n        return super.transfer(recipient, amount);\r\n    }\r\n}\r\n",
  "sourcePath": "C:\\webdevelopment\\carboncredit capstone\\Carbon-Credits\\contracts\\CarbonCredit.sol",
  "compiler": {
    "name": "solc",
    "version": "0.8.0+commit.c7dfd78e.Emscripten.clang"
  },
  "schemaVersion": "3.4.16",
  "updatedAt": "2024-10-10T16:35:54.983Z",
  "networkType": "ethereum",
  "devdoc": {
    "kind": "dev",
    "methods": {},
    "version": 1
  },
  "userdoc": {
    "kind": "user",
    "methods": {},
    "version": 1
  }
}