{
  "contractName": "Roles",
  "abi": [
    {
      "anonymous": false,
      "inputs": [
        {
          "indexed": false,
          "internalType": "address",
          "name": "userAddress",
          "type": "address"
        },
        {
          "indexed": false,
          "internalType": "enum Roles.Role",
          "name": "role",
          "type": "uint8"
        }
      ],
      "name": "UserLoggedIn",
      "type": "event"
    },
    {
      "anonymous": false,
      "inputs": [
        {
          "indexed": false,
          "internalType": "address",
          "name": "userAddress",
          "type": "address"
        },
        {
          "indexed": false,
          "internalType": "string",
          "name": "name",
          "type": "string"
        },
        {
          "indexed": false,
          "internalType": "enum Roles.Role",
          "name": "role",
          "type": "uint8"
        }
      ],
      "name": "UserSignedUp",
      "type": "event"
    },
    {
      "inputs": [
        {
          "internalType": "address",
          "name": "",
          "type": "address"
        }
      ],
      "name": "users",
      "outputs": [
        {
          "internalType": "string",
          "name": "name",
          "type": "string"
        },
        {
          "internalType": "address",
          "name": "userAddress",
          "type": "address"
        },
        {
          "internalType": "enum Roles.Role",
          "name": "role",
          "type": "uint8"
        },
        {
          "internalType": "bool",
          "name": "exists",
          "type": "bool"
        }
      ],
      "stateMutability": "view",
      "type": "function",
      "constant": true
    },
    {
      "inputs": [
        {
          "internalType": "string",
          "name": "_name",
          "type": "string"
        },
        {
          "internalType": "uint8",
          "name": "_role",
          "type": "uint8"
        }
      ],
      "name": "signup",
      "outputs": [],
      "stateMutability": "nonpayable",
      "type": "function"
    },
    {
      "inputs": [
        {
          "internalType": "address",
          "name": "userAddress",
          "type": "address"
        }
      ],
      "name": "getUser",
      "outputs": [
        {
          "components": [
            {
              "internalType": "string",
              "name": "name",
              "type": "string"
            },
            {
              "internalType": "address",
              "name": "userAddress",
              "type": "address"
            },
            {
              "internalType": "enum Roles.Role",
              "name": "role",
              "type": "uint8"
            },
            {
              "internalType": "bool",
              "name": "exists",
              "type": "bool"
            }
          ],
          "internalType": "struct Roles.User",
          "name": "",
          "type": "tuple"
        }
      ],
      "stateMutability": "view",
      "type": "function",
      "constant": true
    },
    {
      "inputs": [],
      "name": "getUserRole",
      "outputs": [
        {
          "internalType": "enum Roles.Role",
          "name": "",
          "type": "uint8"
        }
      ],
      "stateMutability": "view",
      "type": "function",
      "constant": true
    }
  ],
  "bytecode": "0x608060405234801561001057600080fd5b50610f95806100206000396000f3fe608060405234801561001057600080fd5b506004361061004c5760003560e01c8063084cd5cd146100515780636f77926b1461006d578063a87430ba1461009d578063bf04a10d146100d0575b600080fd5b61006b600480360381019061006691906109a3565b6100ee565b005b6100876004803603810190610082919061097a565b610415565b6040516100949190610ceb565b60405180910390f35b6100b760048036038101906100b2919061097a565b6105f7565b6040516100c79493929190610c3f565b60405180910390f35b6100d86106e9565b6040516100e59190610c24565b60405180910390f35b6000803373ffffffffffffffffffffffffffffffffffffffff1673ffffffffffffffffffffffffffffffffffffffff16815260200190815260200160002060010160159054906101000a900460ff161561017d576040517f08c379a000000000000000000000000000000000000000000000000000000000815260040161017490610ccb565b60405180910390fd5b60008160ff16118015610194575060048160ff1611155b6101d3576040517f08c379a00000000000000000000000000000000000000000000000000000000081526004016101ca90610cab565b60405180910390fd5b60405180608001604052808381526020013373ffffffffffffffffffffffffffffffffffffffff1681526020018260ff16600481111561023c577f4e487b7100000000000000000000000000000000000000000000000000000000600052602160045260246000fd5b6004811115610274577f4e487b7100000000000000000000000000000000000000000000000000000000600052602160045260246000fd5b8152602001600115158152506000803373ffffffffffffffffffffffffffffffffffffffff1673ffffffffffffffffffffffffffffffffffffffff16815260200190815260200160002060008201518160000190805190602001906102da9291906107cd565b5060208201518160010160006101000a81548173ffffffffffffffffffffffffffffffffffffffff021916908373ffffffffffffffffffffffffffffffffffffffff16021790555060408201518160010160146101000a81548160ff02191690836004811115610373577f4e487b7100000000000000000000000000000000000000000000000000000000600052602160045260246000fd5b021790555060608201518160010160156101000a81548160ff0219169083151502179055509050507fdb96ccf90a34f293591048eab6c5993eac9c2097f0bab48f29579a75f0c7461d33838360ff1660048111156103fa577f4e487b7100000000000000000000000000000000000000000000000000000000600052602160045260246000fd5b60405161040993929190610be6565b60405180910390a15050565b61041d610853565b6000808373ffffffffffffffffffffffffffffffffffffffff1673ffffffffffffffffffffffffffffffffffffffff16815260200190815260200160002060405180608001604052908160008201805461047690610e4d565b80601f01602080910402602001604051908101604052809291908181526020018280546104a290610e4d565b80156104ef5780601f106104c4576101008083540402835291602001916104ef565b820191906000526020600020905b8154815290600101906020018083116104d257829003601f168201915b505050505081526020016001820160009054906101000a900473ffffffffffffffffffffffffffffffffffffffff1673ffffffffffffffffffffffffffffffffffffffff1673ffffffffffffffffffffffffffffffffffffffff1681526020016001820160149054906101000a900460ff166004811115610599577f4e487b7100000000000000000000000000000000000000000000000000000000600052602160045260246000fd5b60048111156105d1577f4e487b7100000000000000000000000000000000000000000000000000000000600052602160045260246000fd5b81526020016001820160159054906101000a900460ff1615151515815250509050919050565b600060205280600052604060002060009150905080600001805461061a90610e4d565b80601f016020809104026020016040519081016040528092919081815260200182805461064690610e4d565b80156106935780601f1061066857610100808354040283529160200191610693565b820191906000526020600020905b81548152906001019060200180831161067657829003601f168201915b5050505050908060010160009054906101000a900473ffffffffffffffffffffffffffffffffffffffff16908060010160149054906101000a900460ff16908060010160159054906101000a900460ff16905084565b60008060003373ffffffffffffffffffffffffffffffffffffffff1673ffffffffffffffffffffffffffffffffffffffff16815260200190815260200160002060010160159054906101000a900460ff16610779576040517f08c379a000000000000000000000000000000000000000000000000000000000815260040161077090610c8b565b60405180910390fd5b6000803373ffffffffffffffffffffffffffffffffffffffff1673ffffffffffffffffffffffffffffffffffffffff16815260200190815260200160002060010160149054906101000a900460ff16905090565b8280546107d990610e4d565b90600052602060002090601f0160209004810192826107fb5760008555610842565b82601f1061081457805160ff1916838001178555610842565b82800160010185558215610842579182015b82811115610841578251825591602001919060010190610826565b5b50905061084f91906108cb565b5090565b604051806080016040528060608152602001600073ffffffffffffffffffffffffffffffffffffffff168152602001600060048111156108bc577f4e487b7100000000000000000000000000000000000000000000000000000000600052602160045260246000fd5b81526020016000151581525090565b5b808211156108e45760008160009055506001016108cc565b5090565b60006108fb6108f684610d3e565b610d0d565b90508281526020810184848401111561091357600080fd5b61091e848285610e0b565b509392505050565b60008135905061093581610f31565b92915050565b600082601f83011261094c57600080fd5b813561095c8482602086016108e8565b91505092915050565b60008135905061097481610f48565b92915050565b60006020828403121561098c57600080fd5b600061099a84828501610926565b91505092915050565b600080604083850312156109b657600080fd5b600083013567ffffffffffffffff8111156109d057600080fd5b6109dc8582860161093b565b92505060206109ed85828601610965565b9150509250929050565b610a0081610d9b565b82525050565b610a0f81610d9b565b82525050565b610a1e81610dad565b82525050565b610a2d81610dad565b82525050565b610a3c81610df9565b82525050565b610a4b81610df9565b82525050565b6000610a5c82610d6e565b610a668185610d79565b9350610a76818560208601610e1a565b610a7f81610f0c565b840191505092915050565b6000610a9582610d6e565b610a9f8185610d8a565b9350610aaf818560208601610e1a565b610ab881610f0c565b840191505092915050565b6000610ad0601383610d8a565b91507f55736572206e6f742072656769737465726564000000000000000000000000006000830152602082019050919050565b6000610b10600c83610d8a565b91507f496e76616c696420726f6c6500000000000000000000000000000000000000006000830152602082019050919050565b6000610b50601783610d8a565b91507f5573657220616c726561647920726567697374657265640000000000000000006000830152602082019050919050565b60006080830160008301518482036000860152610ba08282610a51565b9150506020830151610bb560208601826109f7565b506040830151610bc86040860182610a33565b506060830151610bdb6060860182610a15565b508091505092915050565b6000606082019050610bfb6000830186610a06565b8181036020830152610c0d8185610a8a565b9050610c1c6040830184610a42565b949350505050565b6000602082019050610c396000830184610a42565b92915050565b60006080820190508181036000830152610c598187610a8a565b9050610c686020830186610a06565b610c756040830185610a42565b610c826060830184610a24565b95945050505050565b60006020820190508181036000830152610ca481610ac3565b9050919050565b60006020820190508181036000830152610cc481610b03565b9050919050565b60006020820190508181036000830152610ce481610b43565b9050919050565b60006020820190508181036000830152610d058184610b83565b905092915050565b6000604051905081810181811067ffffffffffffffff82111715610d3457610d33610edd565b5b8060405250919050565b600067ffffffffffffffff821115610d5957610d58610edd565b5b601f19601f8301169050602081019050919050565b600081519050919050565b600082825260208201905092915050565b600082825260208201905092915050565b6000610da682610dcc565b9050919050565b60008115159050919050565b6000819050610dc782610f1d565b919050565b600073ffffffffffffffffffffffffffffffffffffffff82169050919050565b600060ff82169050919050565b6000610e0482610db9565b9050919050565b82818337600083830152505050565b60005b83811015610e38578082015181840152602081019050610e1d565b83811115610e47576000848401525b50505050565b60006002820490506001821680610e6557607f821691505b60208210811415610e7957610e78610eae565b5b50919050565b7f4e487b7100000000000000000000000000000000000000000000000000000000600052602160045260246000fd5b7f4e487b7100000000000000000000000000000000000000000000000000000000600052602260045260246000fd5b7f4e487b7100000000000000000000000000000000000000000000000000000000600052604160045260246000fd5b6000601f19601f8301169050919050565b60058110610f2e57610f2d610e7f565b5b50565b610f3a81610d9b565b8114610f4557600080fd5b50565b610f5181610dec565b8114610f5c57600080fd5b5056fea264697066735822122017e485f7646d7f7b608a4ef9c0a4fe8353912bdd9863df40492c91bd3ec1f32864736f6c63430008000033",
  "immutableReferences": {},
  "source": "// SPDX-License-Identifier: MIT\r\npragma solidity ^0.8.0;\r\n\r\ncontract Roles {\r\n    // Enum representing different roles\r\n    enum Role {\r\n        None,\r\n        Supplier,\r\n        Auditor,\r\n        RegulatoryAuthority,\r\n        Buyer\r\n    }\r\n\r\n    // User struct to store user details and role\r\n    struct User {\r\n        string name;\r\n        address userAddress;\r\n        Role role;\r\n        bool exists;\r\n    }\r\n\r\n    // Mapping to store all registered users by their address\r\n    mapping(address => User) public users;\r\n\r\n    // Events for user sign-up and login\r\n    event UserSignedUp(address userAddress, string name, Role role);\r\n    event UserLoggedIn(address userAddress, Role role);\r\n\r\n    // Modifier to ensure only registered users can call a function\r\n    modifier onlyRegistered() {\r\n        require(users[msg.sender].exists, \"User not registered\");\r\n        _;\r\n    }\r\n\r\n    // Function to register a new user with a name and role\r\n    function signup(string memory _name, uint8 _role) public {\r\n        require(!users[msg.sender].exists, \"User already registered\");\r\n        require(_role > 0 && _role <= 4, \"Invalid role\"); // Valid roles are from 1 to 4\r\n\r\n        users[msg.sender] = User({\r\n            name: _name,\r\n            userAddress: msg.sender,\r\n            role: Role(_role),\r\n            exists: true\r\n        });\r\n\r\n        emit UserSignedUp(msg.sender, _name, Role(_role));\r\n    }\r\n\r\n    // Function to retrieve the details of a user\r\n    function getUser(address userAddress) public view returns (User memory) {\r\n        return users[userAddress];\r\n    }\r\n\r\n    // Function to get the role of the caller (must be registered)\r\n    function getUserRole() public view onlyRegistered returns (Role) {\r\n        return users[msg.sender].role;\r\n    }\r\n}\r\n",
  "sourcePath": "C:\\webdevelopment\\carboncredit capstone\\Carbon-Credits\\contracts\\Roles.sol",
  "compiler": {
    "name": "solc",
    "version": "0.8.0+commit.c7dfd78e.Emscripten.clang"
  },
  "schemaVersion": "3.4.16",
  "updatedAt": "2024-10-10T16:35:54.975Z",
  "networkType": "ethereum",
  "devdoc": {
    "kind": "dev",
    "methods": {},
    "version": 1
  },
  "userdoc": {
    "kind": "user",
    "methods": {},
    "version": 1
  }
}